:1008A900C2A71208001208E87F4112092612086837
:1008B9007F421209261208687F4312092612086826
:1008C9007F301209261208681208637F011209266F
:0F08D9001208687D047C00E4FFFE12095080FEC7
:10090800C2A5C2A68FB0D2A7E4F509F50A050AE583
:0E0918000A700205096464450970F2C2A72244
:10092600D2A5C2A68FB0D2A7E4F509F50A050AE555
:0E0936000A700205096464450970F2C2A72226
:1008E8007F011209081208687F02120908120868B5
:1008F8007F381209081208687F0E12090802086872
:0B085D00120908120868E4FF120926C7
:10086800C2A5D2A6D2A7E4F509F50A050AE50A70D9
:100878000205096464450970F28018EF6022D2A766
:10088800E4F509F50A050AE50A70020509646445F4
:100898000970F2C2A7E5B0C41313135401FF80DB3B
:0108A800222D
:100800007F4012085DE4FF12092612086012086397
:100810007F041209261208687F0E12092612086842
:100820007F1F1209261208687F4812085D7F021296
:1008300009261208687F021209261208687F021230
:1008400009261208687F0A1209261208687F1E12FC
:0D08500009261208687F08120926020868B0
:0B095000EF2D4480FF12090802086828
:03000000020944AE
:0C094400787FE4F6D8FD75810C0208A94C
:00000001FF
